:020000040000fa
:10000000f0ff0320b143000011540000175400001a
:1000100023540000295400002f5400000000000069
:100020000000000000000000000000001720000099
:100030001d540000000000001720000017200000e1
:1000400017200000172000001720000017200000d4
:1000500017200000172000001720000017200000c4
:1000600017200000172000001720000017200000b4
:1000700017200000172000001720000017200000a4
:100080001720000017200000172000001720000094
:100090001720000017200000172000001720000084
:1000a0001720000017200000172000001720000074
:1000b0001720000017200000172000001720000064
:1000c0001720000017200000172000001720000054
:1000d0001720000017200000172000001720000044
:1000e00017200000172000000000000000000000a2
:1000f000000000001720000017200000172000005b
:100100001720000017200000172000001720000013
:100110001720000017200000172000001720000003
:1001200017200000172000001720000017200000f3
:1001300017200000172000001720000017200000e3
:1001400017200000172000001720000017200000d3
:1001500017200000172000001720000017200000c3
:100160001720000017200000d51b0000d51b000041
:10017000d51b0000d51b0000172000001720000031
:100180001720000017200000172000001720000093
:100190001720000017200000172000001720000083
:1001a0001720000017200000172000001720000073
:1001b0001720000017200000172000001720000063
:1001c0001720000017200000172000001720000053
:1001d0001720000017200000172000001720000043
:1001e0001720000017200000172000001720000033
:1001f0001720000017200000172000001720000023
:100200001720000017200000172000001720000012
:100210001720000017200000172000001720000002
:1002200017200000172000001720000017200000f2
:1002300017200000172000001720000017200000e2
:1002400017200000172000001720000017200000d2
:1002500017200000172000001720000017200000c2
:040260001720000063
:020000040000fa
:10026400f8b500bff8bc08bc9e467047794800004a
:10027400f8b500bff8bc08bc9e467047554800005e
:020000040000fa
:08028400a00f000001000000c2
:020000040000fa
:04028c0003f04ebe6f
:020000040000fa
:100290002de9f04f2ded028bd2e9008997b0cde921
:1002a0000c138b6808930b690f90d1e900b6149377
:1002b000cd68002200234046494604f08bfc40b93b
:1002c0001bf0040f32d11bf00803059330d020231c
:1002d00003e089f0004399462d232b70089b03f11e
:1002e000ff3a012305934c4929f0004300208b423b
:1002f00008bf80451fd10d9b413b192b059b94bf27
:10030000464947492b44184605f06bf8284605f046
:100310001df8cdf800b00246089b0f98294603f05f
:10032000d9fa17b0bdec028bbde8f08f2b23d4e7d0
:10033000ddf820a0d7e7994208bf404509d20d9bc0
:10034000413b192b059b94bf364937492b4418462e
:10035000dae7002200234046494604f0bdfc9fed49
:100360002c7b8ded027b48b300240d9805f02bf813
:10037000002ec3b20993c0f2e781672b5ad1002e39
:1003800008bf0126231d02dbb442c0f2ca816527e3
:1003900061e09ded067b8ded027b01340022234b55
:1003a000dde9020102f044fa42464b46cde906017e
:1003b00004f0a0fb0028ecd000271fe00446ede786
:1003c00014f5967f11da87b90022194b4046494649
:1003d00002f02efa002280468946154bdde9020123
:1003e00002f026facde902010127dde9020100222f
:1003f0000e4b01f005fdcde90201013cdde90223d0
:100400004046494604f0e6fb0028d9d1ade700bfdd
:10041000000000000000f03f0000f07f8c5300005f
:1004200090530000945300009853000000002440b3
:1004300000005043099f662f06f101060bd1002ce6
:1004400004da9fedbb7b8ded027b0024099b672bbb
:1004500018bf361966279ded027bcde906898ded23
:100460000a7b00230e93dde90a23dde9060101f092
:10047000c7fc41ec100b02f0effc51ec100bb0ee9e
:10048000408af0ee608a04f0f0f8b0ee480af0ee30
:10049000680a069b1093079b159083f00043119305
:1004a0009ded0a1b9ded102b04f046fd53ec102b27
:1004b00083f000430793dde90a01a14b8ded060aa5
:1004c000002201f09dfc0e9b01339e42cde90a0102
:1004d0000e93c8d100229b4b02f0aaf9cde90a0184
:1004e00002460b46dde9060104f074fb002840f0eb
:1004f0008580dde90a23dde9060104f0edfb10b19a
:10050000159bda077ad5dde90a234046494601f012
:1005100023f90022cde90601894bdde9020102f051
:1005200087f9dde90623cde90a0104f06ffa002816
:1005300069d0662f04f1010469d10136a146a9eb07
:10054000060310934ff000080bf01003059ecdf842
:1005500008801593109b994540f08380029b002be7
:1005600000f0c9800022652f05eb0600aa5529d1ad
:10057000149b1499013b9442ea54c1f1030ebcbf91
:10058000644201220a21002c40f0bc800eeb030cd7
:10059000bcf1000f00f3b680002a03f1ff3114bf55
:1005a0002d222b226a540d9a413a023b192a98bff8
:1005b00045279e4205eb0301ef54aaf1020a01da36
:1005c00004f00fff0bf00303022b7ff49faebaf190
:1005d000000f7ff79bae284604f0b8fe05eb0a0338
:1005e000059a824240f39980059b2b441846524657
:1005f000302104f0bbfe0023089387e69fed4e7b7d
:100600008ded0a7b7fe79ded027b8ded0a7b652feb
:1006100014bfa1464ff0000991e7029a52b9b9f10f
:10062000000f07da0e992e226a54012201360af1d0
:10063000ff3a029205eb0801aa19314403e04ff09a
:10064000300002f8010b9142f9d108eb0602303379
:10065000aaeb080808f1ff3a561cab544ff000080b
:1006600027e00c9b0e961b69053bb3427ff676afe5
:10067000dde90a23dde9060101f0c2fb41ec100bc4
:1006800002f0eafb51ec100bb0ee408af0ee608a0b
:1006900003f0ebff159a09280346a8bf092302437c
:1006a000bbd1099a672ab8d1b9f1000fc2da08f1b3
:1006b0000108069b1293079bb0ee480af0ee680a09
:1006c00083f0004313939ded0a1b9ded122b04f064
:1006d00033fc53ec102b83f000430793dde90a0150
:1006e0000022174b8ded060a01f08afb09f1ff3954
:1006f000cde90a012ee71bf0100f1ebf2e23ab55cc
:1007000001362fe7b4fbf1fc013b01fb1c44303404
:10071000ec540af1ff3a644635e72a5c1a54013872
:100720005ee7002cbff696ae662784e6062629e62d
:10073000000000000000f03f00000000000000008a
:100740000000244000001440099b672beed01f4698
:04075000062670e623
:020000040000fa
:0407540000207047ca
:020000040000fa
:100758002de9f04f95b0cde912030b68089392ed9f
:10076800007b4b680a938b6809930b690d93cc68df
:100778000022002351ec170b8ded047b04f026fac0
:1007880040b9089b580734d4089b13f0080732d0a7
:10079800202306e0dde9042181f00043cde90423ac
:1007a8002d232370099b01275a1edde90403dff876
:1007b800f8b223f000414ff0000a594508bf5045f0
:1007c8001bd1139b413b192b04eb070094bfb04985
:1007d800b04904f002feaf4804f0b4fd089b009352
:1007e8000246099b1298214603f070f815b0bde83f
:1007f800f08f2b23d5e7099ad7e7139b8b45a3f1f5
:10080800410308bf82450b9309d2192b04eb07005b
:1008180094bfa149a14904f0e0fda048dce73021dc
:10082800e1550b997b1c1a2934bf58217821e154d2
:10083800931e079300220023dde90401023704f028
:1008480047fa002800f07b819fed8f7b8ded027bbe
:1008580000260a9bdde90289002bdde904abb8bf5d
:1008680018230e93002542464b465046594601f040
:10087800c3fa41ec100b02f0ebfa42464b4651ec3e
:10088800100b8ded100b01f0cfff02460b465046c2
:10089800594604f0a8fd824b82468b46404649469d
:1008a800002201f0c1ff6b1c0c930a9b002b8046b1
:1008b800894606da002200235046594604f008fa11
:1008c80028b90e9bab4200f3408101330c93002200
:1008d800744b4046494601f0a7ff804689460246c8
:1008e8000b465046594604f071f9002840f02f8114
:1008f80042464b465046594604f0eaf930b1dde924
:10090800100103f0aefec10740f1218142464b467b
:10091800dde9040100f01cffcde90401dde9042153
:1009280021f00043604900208b4208bf82423ff417
:1009380048af4ff000083d46c246c1460d9b053bf7
:10094800ab42ab4633d9dde90223dde9040101f00e
:1009580053fa41ec100b02f07bfa51ec100b8dedc1
:100968000e0b03f07efe002840f0f680b9f1000f70
:1009780000f0f28008f10108dde90223dde90e014b
:1009880001f052ff02460b46dde9040104f02bfd9d
:10099800434bcde904010022dde9020101f044ffe7
:1009a8000c9b09f101094b45cde90201c6d1baf109
:1009b800000f1dd1b8f1000f00f015810a9b002b24
:1009c80040f31181089bda0700f10d812e2308eb13
:1009d8000502635522446319302103f8011f9a4226
:1009e800fbd1079b45446fea080843440135079348
:1009f8000d9b0d990022013b9642625504eb0500c0
:100a0800e254bcbf76420122c1f1020e4ff00a083f
:100a1800002e40f0d8800eeb030cbcf1010f00f063
:100a2800d280002a03f1ff3114bf2d222b226254f9
:100a38000b9a023b1a2a34bf502270229d4204ebc3
:100a48000301e25401da04f0c8fc089b03f0030335
:100a5800022b14d1079ba3f10208b8f1000f0edd99
:100a6800204604f06ffc04eb0803b84280f2b7801c
:100a780042463021e01904f075fc00230993204612
:100a8800aae600bfaff30080000000000000f03fbe
:100a98007c530000805300008453000088530000fa
:100aa8000000b03f000020400000f07fcde902893f
:100ab8000136dde902231046194600f049fe80465a
:100ac800894602460b46dde9040104f07ff8002858
:100ad800ecd0dff82cb1dff82c914ff0000a4ff082
:100ae8000008dde90223dde9040104f06ff80028bd
:100af8003ff4afae52465b46dde9020101f094fed9
:100b08000022002304f0e4f878b142464b46dde9c0
:100b1800020101f089fe4246cde902014b46dde9ba
:100b2800040101f081fecde90401dde9020152462c
:100b38005b4601f079fe013ecde90201d1e79fed68
:100b48002e7b06468ded027bb3e70c9d8be64ff0be
:100b580000084ff00009d9e6baf1000f0bd1b9f13e
:100b6800000f08d02e2304f80b30079b013b0135fa
:100b780007934ff0010a04eb080362192b4403e0c2
:100b88004ff0300102f8011b9a42f9d1079b05eb9f
:100b9800080ba3eb08080b9b0928d4bf303057304b
:100ba800192b06d840f02003613b192b01d804f01b
:100bb8000dfc08f1ff330bf1010504f80b00079356
:100bc8004ff00008d8e60799b6fbf8fc013b08fb94
:100bd8001c6630360139e6540791664618e7225cf0
:100be8001a54013841e7089bdb067ff501af2e2335
:100bf80063550135fce600bf000000000000f03f2f
:080c08000000e03f0000504332
:020000040000fa
:100c1000640700201c0000000000000038070020ce
:100c20002c00000000000000080700203000000039
:100c300000000000800700201800000000000000f5
:100c4000a40700200800000000000000ac070020fe
:100c50000800000000000000fd0700200100000067
:100c60000000000004080020010000000000000057
:100c7000000800200100000000000000fc07002028
:100c80000100000000000000bc070020040000007c
:100c900000000000c0070020040000000000000069
:100ca0000508002001000000010000001400000001
:100cb000fe0700200100000000000000f8080020ee
:100cc0000100000001000000fa000000c40700203d
:100cd00004000000000000000608002002000000e0
:100ce00001000000c8000000c80700200400000048
:100cf00000000000cc0700200400000000000000fd
:100d0000d00700200400000000000000d4070020ed
:100d10000400000000000000d807002004000000cc
:100d200000000000dc0700200400000000000000bc
:100d3000e00700200400000000000000e40700209d
:100d40000400000000000000e8070020040000008c
:100d500000000000f4080020040000000100000072
:100d600000002042ff0700200100000000000000fa
:100d700001080020010000000000000068060020bb
:100d800050000000000000000208002001000000e8
:100d900000000000140600205400000000000000c5
:100da000980700200c00000000000000030800204d
:100db0000100000000000000ec070020040000001b
:100dc00000000000b80600205000000000000000f5
:100dd000080800206c00000001000000140800203a
:100de000100800201408002000000000250000006a
:100df00008000020000400000000000000000000c7
:100e000000000000000000000000000000000000e2
:100e10000000000000000000550700000000000076
:100e20000000000000000000000000008d3f0000f6
:100e300000000000000000000000000000000000b2
:100e40000000000000000000000000200804000076
:100e500000000000d4080020200000000100000075
:100e6000010000000300000000000000000000007e
:100e7000000000000000000000000000b407002097
:100e8000b40700200800000000000000f007002068
:100e90000400000000000000080400200c02000014
:100ea0000000000074080020600000000100000045
:100eb000010000000300000000000000000000002e
:100ec00000000000000000000000000001410000e0
:100ed0000000000000000000000000003554000089
:100ee0004737000000000000000000000000000084
:100ef00000000000000000000000000000000000f2
:100f000000000000000000000000000000000000e1
:100f1000f40700200400000000000000f807002093
:100f200004000000000000000000000000000000bd
:020000040000fa
:100f30002de9f04fadb00027dff8e4a2039106469b
:100f40001546b8464ff0ff3903990b78002b00f097
:100f5000f9800cabcde907890a938023cdf8248072
:100f60000b9300240b5d0bb1252b26d134b1224607
:100f7000304603f069fd039b23440393039b1a78d7
:100f8000252a40f0d78003f1010bcdf80cb003986f
:100f900003782b2b1ad025d8202b1bd0232b1dd028
:100fa0002a2b27d003f0cdfb0990039b1a78303a07
:100fb000092a2ed801330393f7e70134d2e7079bc0
:100fc00043f00103013007930390e0e7079b43f0f0
:100fd0000403f7e7079b43f00803f3e7079b43f09d
:100fe0001003efe72d2bead0302bd9d1079b43f02c
:100ff0000203e7e72b681a1d1b682a600130002beb
:101000000390099305da079a5b4282f00102079286
:101010000993079bda0744bf23f002030793039b5e
:101020001a782e2a0dd1581ccdf8208003905a78ba
:101030002a2a25d1023303932b681a1d1b682a60c4
:10104000089303a803f0aafd039b0190187804f00d
:10105000baf96928019979d032dc632800f0c6809a
:1010600019dc252800f0d080612853d025238df885
:101070001030cdf80cb0cdf81c80cde90898c0e058
:1010800003f05ffb0890039b1a78303a092ad8d8fe
:1010900001330393f7e7642858d06728e6dc2a4633
:1010a00004a803f08aff002800f09c80039b5a1cd0
:1010b00003921b7804aa07a93046fff7e9f838e045
:1010c000702873d015dc6e2800f087806f28cdd192
:1010d0002b46002204a802f035f8002800f0828098
:1010e000039b04aa013307a93046039302f0d6fdff
:1010f0001fe075283ad0782848d07328b6d18029c7
:1011000070d1039b2a6801330393131d2b6012686f
:1011100000235be02a4604a803f04fff002861d0bb
:10112000039b5a1c03921b7804aa07a93046fff7b9
:1011300013fb04443c44a7426edd384b4f221a6037
:101140004ff0ff3738462db0bde8f08f2b46012217
:1011500004a801f0f7ff002844d0039b04aa013340
:1011600007a93046039302f043f8e2e72b4600223a
:1011700004a801f0e7ff002834d0039b04aa013340
:1011800007a93046039303f041f8d2e72b4600222b
:1011900004a801f0d7ff28b3039b5a1c03921b78c5
:1011a00004aa07a9304601f0dbfbc2e72b46002268
:1011b000f02104a801f0c6ffa0b1039b0133039303
:1011c000dde90423134306d10023524607a9304624
:1011d00002f0f0ffade77823e2e72b463a1904a8c6
:1011e00002f0f6fb039b01330393a3e78029f9d1b7
:1011f000039b013303932b681a1d1b682a608df82b
:101200001030012304aae1e78029ebd1039b8df87c
:10121000100001330393f4e7274695e6f407002016
:041220003652000042
:020000040000fa
:101224002de9f04f099f154604468e461e46002bb5
:1012340040f0cc808a42b2fa82fc4cd9bcf1000f57
:101244000bd0ccf1200801fa0cfe20fa08f802fabf
:101254000cf548ea0e0e00fa0cf44fea15491ffa91
:1012640085f8befbf9fa210c09fb1ae30afb08fb1b
:1012740041ea03439b452ad9eb180af1ff3004d213
:101284009b4502d9aaf102002b44a3eb0b03a4b2a1
:10129400b3fbf9f209fb123302fb08f844ea0344f6
:1012a400a04516d92c1902f1ff3303d2a04501d968
:1012b400931e2c44a4eb080443ea004027b124fa0b
:1012c4000cf400233c607b603146bde8f08f50464f
:1012d400dbe71346eee702b9ffdebcf1000f2ed1c7
:1012e4008b1a01264fea154eaab2b3fbfef8210c65
:1012f4000efb183308fb02f941ea0343994561d90f
:10130400eb1808f1ff3004d2994502d9a8f1020084
:101314002b44a3eb0903a4b2b3fbfef10efb113380
:101324004a4344ea0344a2424ed92c1901f1ff3343
:1013340003d2a24201d98b1e2c44a41abce7ccf1df
:10134400200e02fa0cf521fa0ef901fa0cf320fa38
:101354000efe4eea03034fea154800fa0cf4b9fbfb
:10136400f8f11ffa85fe08fb1192180c01fb0ef62a
:1013740040ea0242964221d9aa1801f1ff3003d271
:10138400964201d9881e2a44921b9bb2b2fbf8f9fb
:1013940008fb192209fb0efe43ea02439e450fd9be
:1013a400eb1809f1ff3604d29e4502d9a9f10206d1
:1013b4002b44a3eb0e0346ea004693e70846e3e713
:1013c4004e46f6e74046a4e70b46b6e78b4206d9fd
:1013d400002f7ed00026c7e90001304674e7b3fa37
:1013e40083fcbcf1000f0fd18b4201d3824209d898
:1013f400841a61eb030e0120002f6dd0c7e9004e63
:10140400002661e76046f7e7ccf1200e03fa0cf3ff
:1014140022fa0ef521fa0ef41d4301fa0cf320fa18
:101424000ef10b434fea154a00fa0cf6b4fbfaf935
:101434001ffa85f80afb19401c0c09fb08f144ea61
:101444000044a14202fa0cf23fd92c1909f1ff30f1
:1014540004d2a14202d9a9f102002c44641a9bb21d
:10146400b4fbfaf90afb194409fb08f843ea0441fe
:1014740088452cd9691809f1ff3304d2884502d96b
:10148400a9f10203294443ea0040a1eb0801a0fbaf
:1014940002894945c2464c4602d306d1464504d288
:1014a400b8eb020a69eb05040138afb1b6eb0a03e5
:1014b40061eb040606fa0efe23fa0cf34eea03036c
:1014c40026fa0cf6c7e900369ae74846c6e74b46c3
:0c14d400d9e73e463846f7e63e46f5e60e
:020000040000fa
:1014e00080b584b000af78600023fb607b68b3f107
:1014f000ff3f00f00d817b68002b40f009817b6885
:10150000542202fb03f3854a1344fb60fb6893f902
:101510000030012b00f0fe80fb6893f84930dbb20d
:10152000092b00f2f88001a252f823f055150000b3
:10153000b9150000c9150000611600007116000001
:101540009516000081160000fd160000ed16000043
:1015500007170000f86802f013fc714b00221a70a4
:10156000704b4ff000029a606e4b4ff000021a6011
:101570006c4b4ff000025a606b4b00221a606b4bb1
:1015800000221a706a4b6b4a1a606b4b4ff00002d4
:101590001a606a4b4ff000021a60694b00221a6011
:1015a000684b00221a60684b4ff000021a60fb681b
:1015b000012283f84920aee0f86801f0a7fffb683c
:1015c000022283f84920a6e0604b00221a70604a8c
:1015d00013786ff3c71313705d4a13786ff3861394
:1015e0001370fb68002283f83820584b1a78fb6888
:1015f00083f83920574b1a78fb6883f83a20fb6848
:10160000db685b68fa6892f8402090b2fa6802f1f1
:1016100038010322984700bf03f03cf90346002b32
:10162000fad1fb68062283f83820fb68022283f88f
:101630003920fb68db685b68fa6892f8402090b25a
:10164000fa6802f138010222984700bf03f022f93c
:101650000346002bfad1fb68042283f849205ae0a4
:10166000f86801f091fbfb68042283f84a2052e0fd
:10167000f86801f0b5fefb68062283f849204ae0cd
:1016800004220521f86802f0e9fbfb68052283f8d3
:10169000492040e0fb681b7edbb21b021ab2fb68ec
:1016a0005b7edbb21bb213431bb29ab2fb68a3f89a
:1016b0004e20fb689b7edbb21b021ab2fb68db7e0e
:1016c000dbb21bb213431bb29ab2fb68a3f85020e3
:1016d000fb68072283f84920fb68b3f84e301946af
:1016e000f86800f059f903f091fa14e0fb68b3f8d8
:1016f0004e301946f86800f039ff0ce0fb6806220e
:1017000083f8492007e0f86801f04aff00bf02e0d3
:1017100000bf00e000bf1037bd4680bd14060020aa
:10172000ff07002098070020cc07002002080020b7
:10173000d40700200000a041d8070020dc070020cb
:10174000c8070020d0070020bc07002004080020a4
:08175000fc0700200008002046
:020000040000fa
:1017580030b591ea030f00f18280841a71eb030c13
:1017680005d2121953eb0c03001b71eb0c0140f26c
:10177800000ccff6e07c1cea430f52d0bceb410fc3
:101788005fd90c0da4eb135e5ff0010c6cf31f51d5
:101798006cf31f53def1200c2ad303fa0cf5401921
:1017a80041f1000122fa0ef5401923fa0ef56941bc
:1017b80012fa0cf2cd0208d349085fea30005fea5a
:1017c800320228bf42f001020134013c5fea500caa
:1017d80072f1004250f1000051eb04514ff4001334
:1017e80013eb410f38bf30bd6ff31301002030bd3c
:1017f800bef1200ebef1200f1ed223fa0ef54019bd
:1018080041f10001cef1200c124218bf012203fa67
:101818000cf52a43cee711ea5c0f04bf0020002133
:1018280030bd1cea410f04bf01f00041002030bd6b
:1018380001f00041002030bd21f4801101eb04517a
:1018480030bd004218bf41f00101bceb410f08bf99
:1018580030bd4ff0fe4141f47801002030bd83f0e7
:101868000043841a71eb030e07d28ef0004e001b62
:1018780071eb0e01121953eb0e0340f2000ccff678
:10188800e07c1cea430fc6d0bceb410f72d90c0dab
:10189800a4eb135ec90241ea5051c00241f0004175
:1018a800db0243ea5253d20243f00043def1200c3c
:1018b80041d312fa0cf522fa0ef203fa0cf542eab9
:1018c800050218bf42f0010223fa0ef3801a99416b
:1018d800e30ac4f30a0411f0404f03d418d0013cc2
:1018e80040004941013c23d44205c00a40ea415026
:1018f800c90a51eac3715fea500c72f1004250f113
:10190800000051eb045130bd01002fd00020203cd5
:101918000029f9d0b1fa81fcdcf1200e11fa0cf1a2
:1019280030fa0ef510fa0cf02943a4eb0c04d9e7b1
:101938000020d90730bdaef1200ebef1200f0dd228
:10194800cef1200c03fa0cf533fa0ef32a4318bf34
:1019580043f00103c01a61f10001b9e721f0004129
:10196800c00a40ea4150c90a01eb045130bd0020c9
:10197800002130bd004218bf41f00101bceb410f0e
:0e1988007ff467afbceb430f3ff463af30bd9d
:020000040000fa
:02199600704798
:020000040000fa
:10199800b0b584b000af78600b467b807b4b1b688a
:1019a800184603f011f80346184603f019fc0446dc
:1019b8000d46774b1b88184603f098fb02460b46ea
:1019c8004ff00000734900f017fa02460b46104624
:1019d80019464ff00002704b00f026ff02460b46f6
:1019e8002046294603f082f80346002b00f0ca80ff
:1019f8006a4b1b68654a13607b8807ee903af8eedd
:101a0800677ab0ee670a02f00bf987ed030ad7eda3
:101a1800037af1ee677afceee77a17ee903a9bb21a
:101a2800184601f001fe87ed020a97ed020a00f060
:101a3800effa03461a465a4b1a70594b1b78002b7b
:101a480000f0a080574b1b68574a136002f05afcfd
:101a5800f0ee407a534bc3ed007a534b93ed007a86
:101a6800504bd3ed007ab4ee677af1ee10fa05d157
:101a78004e4b1b78013bdab24c4b1a70494bd3edf5
:101a8800007a9fed4b7af4eec77af1ee10fa69dd31
:101a9800444bd3ed007a9fed477af4eec77af1ee26
:101aa80010fa5fd5404b93ed007a3e4bd3ed007aa8
:101ab800b4ee677af1ee10fa03d13c4b1b78002b99
:101ac80050d1394b93ed007a364bd3ed007a77ee4f
:101ad800677afdeee77a17ee903a13f1090f41dbca
:101ae800314b93ed007a2f4bd3ed007a77ee677a7e
:101af800fdeee77a17ee903a092b33dc294b93ed8c
:101b0800007a2d4bd3ed007a77ee677a9fed287a2d
:101b1800f4eec77af1ee10fa24d5284b1b78002b87
:101b280020d0264b1b78c3f115031946244803f02f
:101b3800cbfa244b1b7818461a4b1a6822498300a3
:101b48000b441a601f4b1b780133dab21d4b1a7015
:101b58001a4b1b78013bdab2184b1a70114b1b68f1
:101b6800154a1360154b1b78002b04d17b6808229b
:101b780083f8492006e00d4b1b78002b02d10b4b54
:101b8800fa221a701037bd46b0bd00bfcc0700203e
:101b9800060800200000f03f00408f40c4070020e6
:101ba80001080020bc070020c0070020f80800201a
:101bb8000000484200003443f408002005080020d3
:0c1bc80078340000fe07002068060020b2
:020000040000fa
:101bd40080b500af874b9b7ddbb2002b00f0078103
:101be400844b5b8b9bb203f00203022b08d1824b24
:101bf400ff2283f82020804b022283f82120aee0cc
:101c04007c4b5b8b9bb203f00103012b08d17a4b15
:101c1400ff2283f82020784b022283f821209ee0c3
:101c2400744b5b8b9bb203f00403042b08d1724bff
:101c3400ff2283f82020704b012283f821208ee0bc
:101c44006d4b93f820305bb2042b00f2878001a225
:101c540052f823f0611d0000611d00006d1c00009e
:101c64000d1d0000911c0000634b1b69002b06d066
:101c7400614b9b880021184602f01cfb6fe05e4b11
:101c84009b880121184602f015fb68e05a4b9a69bb
:101c9400594b1b699a4224d1574b5b69002b10d0d6
:101ca400554b9b885b00534a43f00103536200bfca
:101cb400504bdb69002bfbd14f4b032283f82020d0
:101cc4004de04c4b5b684b4a43f44033536000bfd8
:101cd400484bdb69002bfbd1474b062283f82020bd
:101ce4003de0454b9a68444b9b6913441a78414b39
:101cf4009a62414b9b6901333f4a936100bf3d4b5c
:101d0400db69002bfbd12ae03b4bda693a4b5b6978
:101d1400013b9a420ed1374b5b68364a43f4e023c9
:101d2400536000bf334bdb69002bfbd1324b0622df
:101d340083f8202000bf2f4bdb69002bfbd12d4bf8
:101d4400996a2d4bda682c4bdb691344cab21a70ba
:101d5400294bdb690133284ad36100e000bf264bdd
:101d640093f820305bb2b3f1ff3f1cd1224b002229
:101d740083f820201f4b5b681e4a43f440335360b2
:101d840000bf1c4bdb69002bfbd11a4b83221a7654
:101d9400194b5b6a002b2ad0174b5b6a164a926a6e
:101da4001046984723e0144b93f820305bb2062b7f
:101db4001dd1114b002283f820200f4b002283f801
:101dc40021200c4b83221a7600bf0a4b5b8b9bb2fb
:101dd40003f03003102bf8d1074b5b6a002b06d0bd
:101de400054b5b6a044a926a1046984700bf00bfdd
:0c1df40080bd00bf000c00433807002039
:020000040000fa
:101e0000f0b581ea030e0ef0004e40f20007cff667
:101e1000e07717ea41051ebf95ea070f17ea43046a
:101e200094ea070f00f0c5806d0da5eb545707f538
:101e300080674ff0004646eac12444ea5054c0028d
:101e400046eac32343ea5253d202801a9c4104d289
:101e50000018644180185c41013f5b084fea320280
:101e60000025002140f001004ff0070604e0801a31
:101e70009c4136d340416441801a9c4136d3404155
:101e80006441801a9c4136d340416441801a9c4190
:101e900036d340416441801a9c4136d3404164416d
:101ea000013e17d0801a9c4136d340416441801acc
:101eb0009c4136d340416441801a9c4136d3404115
:101ec0006441090201eb156190ea052520f0ff004d
:101ed0004540cce7801a9c4156d335e080185c41e0
:101ee000c8d20018644180185c41c8d2001864410f
:101ef00080185c41c8d20018644180185c41c8d287
:101f00000018644180185c41c8d200186441013e49
:101f100017d080185c41c8d20018644180185c4119
:101f2000c8d20018644180185c41c8d200186441ce
:101f3000090201eb156190ea052520f0ff004540fc
:101f4000cce780185c411fd3420918bf44f001045c
:101f5000490101ebd56100f01f0000eb451021f4b1
:101f6000801141ea0e01013041f10001244208bf15
:101f700020f00100b7f5006f3eda013f49dd01ebcb
:101f80000751bde8f0407047490101ebd56100f011
:101f90001f0000eb451021f4801141ea0e01b7f556
:101fa000006f29da013f34dd01eb0751bde8f04055
:101fb0007047004218bf41f00101124218bf43f0c0
:101fc0000103b7eb410f2cbfb7eb430f1ce0b7eb9e
:101fd000410f04bfb7eb430f16e017ea410f04bff0
:101fe00017ea430f10e017ea410f12d017ea430f28
:101ff00002d0b7eb430f0cd04ef0fe4141f470011c
:102000000020bde8f04070474ff0fe4141f47801f8
:06201000f6e77146f4e75b
:020000040000fa
:02201600fee7e3
:020000040000fa
:10201800b0b584b000af87ed010a6f4b1b78042b75
:1020280000f2ca8001a252f823f000bf4920000044
:102038005d200000bb200000f5200000a321000067
:10204800664b1b68b3f5fa6f40f2b580624b01220c
:102058001a70b0e0624bd3ed007a97ed017ab4eed6
:10206800e77af1ee10fa10ddd7ed017a9fed5d7a8f
:10207800f4eec77af1ee10fa01d57b6800e05a4b0e
:10208800574a1360544b02221a70584b1b68184663
:1020980002f09afc0346b3f5fa6f07d9544b4ff098
:1020a80000021a60534b4ff000021a6000f06cfdfa
:1020b80082e04b4bd3ed007a97ed017ab4eee77ae4
:1020c800f1ee10fa03d5444b03221a7074e0d7edf1
:1020d800017a9fed447af4eec77af1ee10fa01d551
:1020e8007b6800e0404b3e4a136065e0d7ed017a1b
:1020f800b3ee0e7a37ee877a394bd3ed007ab4ee29
:10210800e77af1ee10fa44d53b4b01221a70394aae
:102118007b681360304b04221a70344b1b681846d6
:1021280002f052fc07ee900af8ee677ac7ed037ae0
:10213800d7ed037af5ee407af1ee10fa24d0f8687c
:1021480002f07afd20a3d3e9002300f06dfb0346db
:102158000c4625461c46264b1b68184602f06cfdab
:102168001ba3d3e9002300f05ffb02460b46204681
:102178002946fff7edfa03460c461846214602f0b9
:10218800fff902461a4b1a60144b1b68174a136072
:1021980012e0114b02221a700ee0144b1b6818460d
:1021a80002f012fc0346c82b02d90b4b01221a700d
:1021b80000f0eafc00e000bf0f4b1b781846103710
:1021c800bd46b0bdaff300809a9999999999e93fb6
:1021d800989999999999c93f02080020c407002045
:1021e800d40700200000484400004844c8070020e5
:0c21f800d8070020dc07002003080020ae
:020000040000fa
:102204001b5b481b5b324a002a2a2a204d41583363
:1022140030313030204865617274726174652053c6
:10222400656e736f722044656d6f6e737472617442
:10223400696f6e202a2a2a0d0a436f6e6e656374d5
:1022440020486561727472617465204d696b726fa8
:102254006520436c69636b20626f61726420746fe4
:10226400206569746865722045585432206f722065
:10227400455854330d0a5072657373203120746fbe
:10228400207374617274207468652043616c6962a0
:10229400726174696f6e2070726f636573730d0a77
:1022a4000d0000bf0d0a2a2a2a2053746172746932
:1022b4006e67207468652043616c69627261746939
:1022c4006f6e202a2a2a0d0a2a2a2a20486f6c6453
:1022d400207468652066696e676572206f76657222
:1022e400207468652049522073656e736f72202aca
:1022f4002a2a0d0a54686520696e697469616c2024
:1023040063616c6962726174696f6e2070726f636d
:102314006573732077696c6c2074616b65206162ee
:102324006f7574203330207365636f6e64730d00b2
:102334000d0d0a2a2a2a20507265737320302074e6
:102344006f20737461727420616e6f74686572209b
:102354006d6561737572656d656e74202a2a2a0d28
:10236400000000bf0d0a2a2a2a205374617274697e
:102374006e6720616e6f74686572204d6561737558
:1023840072656d656e74202a2a2a0d0a2a2a2a206b
:10239400486f6c64207468652066696e6765722096
:1023a4006f766572207468652049522073656e7378
:0823b4006f72202a2a2a0d0095
:020000040000fa
:1023bc002de9f04f87b0039003a802f0a5fa00288e
:1023cc0003da002007b0bde8f08f039b1b095d1eec
:1023dc00202d0fd9023b5e4ab3f5007f35bf02ebcf
:1023ec00d30302ebd31313f8045c13f8045c34bf6f
:1023fc00013511350123a5f12001c5f1200203faa5
:10240c0001f923fa02f203fa05f8d8f1000849eab7
:10241c00020969eb4909cde90089dff84081dff851
:10242c0030914746d8e90023009902ea010a019944
:10243c0003ea010b5aea0b0342d1039b05a81033a4
:10244c00059302f031ff18b9424b0c221a60b9e720
:10245c00d8f80852a84206d0059b103b05930123df
:10246c0000f110058360059bea18012143f001037c
:10247c00b5f1080442f8083c42f8041cc7f80822dd
:10248c0045f8043c9dd0204602f081fc88b155f8fb
:10249c00083c55f8041c23f00103e31a5a6822f097
:1024ac0001020a445a6055f8041c21f001016250e3
:1024bc001c462046039902f0cafc04f1080081e78f
:1024cc005446254bbaf1000f34d1cbf1000000ea91
:1024dc000b00434309ebd36393f83c602036304642
:1024ec0002f034fe731c57f8334007ebc303083b70
:1024fc009c4297d0272e26dd0235ae4201dc3f2ec2
:10250c0021d16268039922f00102551a284602f083
:10251c0023fb864217d1e068a6686318d8609e60da
:10252c0083609868c36041f0010060505d60a55005
:10253c006060bee7caf100002040434309ebd3635f
:10254c0093f83c60cbe73146204601f001feb0e742
:10255c00a4400000f407002029e66b0708040020c3
:020000040000fa
:10256c0090b583b000af78600b467b807b68072208
:10257c0083f849204f4bd3ed007a9fed4f7af4ee60
:10258c00c77af1ee10fa40f389804a4bd3ed007a0a
:10259c009fed4a7af4eec77af1ee10fa7ed5484bed
:1025ac0093ed007a434bd3ed007ab4ee677af1eefb
:1025bc0010fa03d1434b1b78012b6fd1404b93ed99
:1025cc00007a3c4bd3ed007a77ee677afdeee77a32
:1025dc0017ee903a13f1090f60db394b93ed007a4b
:1025ec00344bd3ed007a77ee677afdeee77a17ee8f
:1025fc00903a092b52dc2f4b93ed007a324bd3edf2
:10260c00007a77ee677a9fed317af4eec77af1eec5
:10261c0010fa43d52e4802f055fd02f055f9254b22
:10262c00d3ed007ab0ee670a02f080fd294b4ff033
:10263c0000021a6001f0defe264b93ed007af3eef9
:10264c00046ac7ee267a244bc3ed007a224b1b6832
:10265c00184602f0effa03460c4644ec103b01f02e
:10266c006df854ec103b1846214601f087ff0246ea
:10267c001a4b1a60194b1b68184602f0dbfa03461a
:10268c000c461a462346164802f01cfd094b1b68e3
:10269c000d4a13607b68012283f85220094b1b788a
:1026ac00002b02d1074bfa221a7000bf0c37bd4623
:1026bc0090bd00bfbc070020000020420000344346
:1026cc00c0070020f8080020f40800200000484251
:1026dc00a8340000e4070020e8070020e0070020f1
:0426ec00c8340000ee
:020000040000fa
:1026f00080b582b000af454b1b78062b7cd801a279
:1027000052f823f021270000a92700006f270000be
:10271000f92700003f270000f9270000c12700002b
:102720000123fb71fb79002b02d0384b04221a7075
:10273000374802f0cdfc374802f07cfc61e0002015
:1027400001f086fe0346022b02d1304b02221a70a2
:102750000821002000f0f2fd02462c4b5a602b4b62
:102760005b682a4a2c49184602f060fb49e002f0f7
:102770001ffd034683f00103dbb2002b3ed0274b45
:102780001b681b68184602f0abfd0346dab2244b07
:102790001a70234b1b78312b30d1224802f04afcaf
:1027a0001a4b01221a7029e002f030fc0346002b7c
:1027b00026d01d4802f03efc144b06221a701fe082
:1027c00002f0f6fc034683f00103dbb2002b13d0ca
:1027d000124b1b681b68184602f082fd0346dab2f2
:1027e0000f4b1a700e4b1b78302b05d10f4802f09f
:1027f00021fc064b01221a7000bf02e000bf00e07e
:1028000000bf00bf0837bd4680bd00bfac07002039
:10281000042200000c220000a74c00000c0800203d
:10282000fd070020a82200003423000068230000d8
:020000040000fa
:10283000f0b540f2ff7681ea030c16ea115e1ebf86
:10284000b64516ea1355b54252d021ea465141f435
:102850008011a1fb024723ea465343f48013ae44a0
:10286000a0fb03650cf0004c36197d41a1fb03472a
:1028700047f10003a0fb0217f619654153f100036d
:10288000094218bf46f0010640f2fe74b3f5007f1e
:1028900013d2aef5806ea64523d24cea033128034d
:1028a00041ea155140ea16503203450872f10042e0
:1028b00050f1000051eb0e51f0bdaef2ff3ea645c7
:1028c0000fd24ceac321e80241ea555140ea565082
:1028d000f202450872f1004250f1000051eb0e5136
:1028e000f0bd1eea0e0f2dd50cf000410020f0bd0a
:1028f00016ea115f04bf01f000410020004218bf3a
:1029000041f0010116ea135f04bf03f00043002207
:10291000124218bf43f0010306ea1354b44218bf31
:10292000b64503d00cf000410020f0bd21f000417d
:1029300023f00043b1eb065f0cd8b3eb065f09d878
:1029400041b13bb10cf0004141f0fe4141f4700156
:102950000020f0bd40f20001c7f6f8710020f0bd84
:020000040000fa
:102960002de9f04fd1e901590e68d1f80c808bb0f8
:10297000002da8bf26f002060393b8bf012516f06c
:10298000100302900f460493d2e900ab37d05aea05
:102990000b0334d0a9f102033c6916f0080104f1dd
:1029a000ff3405914ff0000108f8041006f0020111
:1029b0000691039918bf03f1ff335b1b4139012cca
:1029c0001fdc049b002b4cd1059b1bb1013c202339
:1029d00008f804303a690096013a4b46121b08eb9e
:1029e0000401029800f076ff029b5b68db0503d5cb
:1029f0007b689842b8bf18460bb0bde8f08f4b46d5
:102a0000cae75aea0b0007d1002d05dc5819002847
:102a1000d7dd06980028d4d00af00f000928d4bfcb
:102a200030305730192904f1ff340ed840f0200c13
:102a3000acf1610cbcf1190f07d8cde90831079250
:102a400002f0c8fcdde90831079a08f804004feaf3
:102a50001a1040ea0b704fea1b1c013d8246e34608
:102a6000ade7d2e900231343aed008eb0403039a89
:0e2a700003f8012c023c302308f80430a4e7e0
:020000040000fa
:022a7e0070479f
:020000040000fa
:102a800080b489b000aff860b9607a600023fb6160
:102a9000fb6807ee903af8ee677ac7ed067abb68f6
:102aa00007ee903af8ee677ac7ed057a4ff000032b
:102ab0003b61bb685b00fa689a4201d2002357e091
:102ac000bb682e4a93421fd8d7ed066ad7ed057a28
:102ad00086eea77ad7ed067adfed296a67eea67a49
:102ae000f2ee046a77eea67a77ee677ac7ed047a9b
:102af000d7ed047afceee77a17ee903afb61bb68fb
:102b0000204a934213d801e0002331e0fb69b3f57a
:102b1000ff7f02d9ff23fb6126e0fb69012b02d86e
:102b20000123fb6120e0fb695b08fb611ce0fb69a2
:102b3000b3f5bf7f03d34ff67f73fb6114e0fb69ee
:102b4000032b03d840f20123fb610de0fb695b001e
:102b50000d4aa2fb03235b081a02fb690a49a1fb89
:102b600003135b081343fb617b68fa691a60012356
:102b700018462437bd465df8047b704740420f007d
:0c2b800095bfd633801a0600abaaaaaaa3
:020000040000fa
:042b8c00704700bfcf
:020000040000fa
:102b90002de9b04300af3a4bd3ed007af5eec07aa1
:102ba000f1ee10fa3ddd374bd3ed007af5eec07a49
:102bb000f1ee10fa35dd344b1b68184602f040f890
:102bc00004460d462e4b1b68184602f039f828a320
:102bd000d3e90023fff72cfe02460b4690469946a8
:102be000284bd3ed007ab2ee047ac7ee876a16ee70
:102bf000900a02f025f802460b4640464946fff788
:102c0000fff802460b462046294602f0f0fb034639
:102c10000c461846214601f0b7fc02461a4b1a60d2
:102c200012e0194b1b68184602f00af812a3d3e908
:102c30000023fff7fdfd03460c461846214601f030
:102c4000a3fc0246104b1a600f4bd3ed007ab3ee93
:102c5000047af4eec77af1ee10fa00d402e00a4bdf
:102c60000a4a1a6000bfbde8b08300bfaff300801e
:102c7000666666666666e63fae47e17a14aeef3f8b
:102c8000dc070020d8070020d40700200000a04166
:020000040000fa
:102c90002de9f84300286ad050f8043ca0f108045c
:102ca00023f00106a719a259934200d0ffde7a68eb
:102cb00023681340da070fd4204602f06ef800288c
:102cc00057d1384602f022f90028f0d07b6823f073
:102cd00001031e441f44eae746f0010363603046e7
:102ce0003b6001f03fff054602f036fa23687a6840
:102cf0001340db07e0d5dff88ce0dee90089c5f1a1
:102d0000200ca5f1200228fa05f009fa0cfc29fa9a
:102d100002f240ea0c001043012100ea0102002304
:102d20001343c5f120007346a5f1200212d121fa08
:102d300000f001fa02f2a94042ea00021ebfdef8ea
:102d400000000143cef8001022b1def804100a435f
:102d5000cef80420681c03ebc003a3f108026660f0
:102d60003e60a2605a68e2605c60e3689c60bde817
:102d7000f883236823f00103e41a636823f0010356
:082d80001e449ee70804002038
:020000040000fa
:102d880080b582b000af78607b68002b5cd07b6830
:102d9800012283f849207b6800225a617b6801225e
:102da8001a707b68012283f848207b68022283f826
:102db80038207b68002283f839207b68db685b68f1
:102dc8007a6892f8402090b27a6802f138010222bb
:102dd800984700bf01f05afd0346002bfad17b68e3
:102de800042283f838207b68002283f839207b6826
:102df800db685b687a6892f8402090b27a6802f1e2
:102e080038010222984700bf01f040fd0346002b1d
:102e1800fad17b68032283f838207b68002283f884
:102e280039207b68db685b687a6892f8402090b24a
:102e38007a6802f138010222984700bf01f026fda6
:102e48000346002bfad100e000bf0837bd4680bd1d
:020000040000fa
:102e580053ec102bc3f30a512de9f04140f2fd70f9
:102e68004e1e86421d4645d8a1f2ff30002835dbac
:102e7800332831dc284bc0f120084ff0ff3c03fa1f
:102e880008f2a1f21f412cfa00fc10ee104a4cea9d
:102e9800020c23fa01f24cea020c23fa00fe04eabf
:102ea8000c0605ea0e0724ea0c0256ea070425ea8e
:102eb8000e030fd0002a73f100040bda4ff48015cb
:102ec80005fa08f425fa01f10c43121925fa00f065
:102ed80040eb030343ec102bbde8f081002a73f1ab
:102ee800000303db9fed080bbde8f0819fed080ba5
:102ef800bde8f0810029efd10a4603f0004343ec16
:102f0800102be9e7aff3008000000000000000008c
:0c2f1800000000000000f0bfffff0f00f1
:020000040000fa
:102f240080b586b000af7860396000237b617b6830
:102f3400002b01d1002349e07b681b683b613b689f
:102f4400002b01d1234b3b6007f10c031a4639696e
:102f54003868fff793fd034683f00103dbb2002bcf
:102f640001d0002332e03b691b4a934201d901237b
:102f74007b611a4b1b68194a23f00203136000bfdc
:102f8400164bdb69002bfbd1144afb68d360134b4f
:102f94001b6823f040727b691b0603f040730f49e2
:102fa40013430b600d4b1b680c4a43f00203136080
:102fb40000bf0a4bdb69002bfbd1084b10225a835c
:102fc40000bf064bdb69002bfbd1012318461837e1
:102fd400bd4680bd00879303801a0600000c0043a1
:020000040000fa
:102fe40080b584b000af03463960fb800023fb60ea
:102ff4003b68bb60fb88002b02d04ff0ff3341e0fd
:10300400fb88542202fb03f3204a1344fb60fb6851
:1030140000221a70fb685b78002b02d04ff0ff335c
:1030240030e0fb6801225a70fb6800225a60fb689a
:1030340000225a61bb681a68fb68da60fb68ba68e8
:103044004033043292e8030083e80300bb68db6882
:103054001a46fb681a61bb681a69fb689a60fb68c8
:10306400db681b69fa68114609489847fb68002227
:1030740083f84920fb68002283f85220fb6802226f
:103084001a70fb8818461037bd4680bd1406002010
:04309400993000006f
:020000040000fa
:1030980080b586b000af78607b687b6100233b61b8
:1030a8007b69002b46d07b695b693b617b69db6888
:1030b800db6898470346fb73fb7b002b0ad07b69d0
:1030c80002221a707b6900225a617b69092283f8ff
:1030d800492030e07b6993f84830012b06d17b69a1
:1030e80002221a707b6900225a6124e07b6993f8f6
:1030f8004830022b0fd17b6993f84a207b6983f80b
:1031080049207b69092283f84a207b6902221a70c8
:103118007b6900225a613b69002b0cd03b695b68d4
:10312800002b08d03b695b683a6992681146012018
:0c313800984700e000bf1837bd4680bd7e
:020000040000fa
:10314400882910b536d012dc812943d003dc8029cc
:1031540040d0002010bd82290ed08429f9d11968ed
:1031640002b30a1d1a60b1f90020d3171ee0a0298a
:103174002bd00bdc9029ecd11968073121f0070121
:1031840001f108021a60d1e900230fe0c02901d03f
:10319400f029ded11a68111d196013680360002339
:1031a400436005e00a1d1a600a880023c0e9002371
:1031b4000120cfe7196822b10a1d1a6091f9002095
:1031c400d3e70a1d1a600a78efe71a68111d19601f
:1031d4001268cae719681ab10a1d1a600a68c4e7b6
:0c31e4000c1d1c600b68c0e90032e1e724
:020000040000fa
:1031f0002de9f041d2e900230c4686b007465fea8c
:10320000d37820684968a5680590e66841d05242a5
:1032100063eb4303002908db20f002000590b8f1be
:10322000000f02d1059948072ad5691e05a802900a
:103230000a20cde90010204600f044fcb8f1000f50
:1032400002d1059b59071fd5b8f1000f00f1ff30df
:1032500014bf2d232b2333542269059b0093013a7d
:103260002b46121a3118384600f034fb7b68db0518
:1032700003d563689842b8bf184606b0bde8f08130
:103280000807d2d42946d1e71a07e5d5013820230b
:08329000e1e70029c0dac5e7ff
:020000040000fa
:1032980080b588b000af786039600023fb777b6821
:1032a8007b617b683b610023bb610023fb817b68fa
:1032b800002b38d001f050f829e000bf1c4b1b7ed2
:1032c800dbb203f00403002bf8d0194b5b8b9bb2e5
:1032d80003f00703fb81fb89002b1dd1144b5b68ae
:1032e80003f00703012b07d0114b996a7a69bb6970
:1032f8001344cab21a7007e00d4b996abb695b00a8
:103308003a6913448ab21a80bb690133bb61ba694e
:103318003b689a42d1d300e000bf3a68bb699a4241
:1033280001d10123fb77fb7f18462037bd4680bdbe
:04333800002001412f
:020000040000fa
:10333c0080b586b000af03460a46fb8013467b710e
:10334c0000237b6100233b61fb88002b02d04ff0f4
:10335c00ff3339e0fb88542202fb03f31c4a13446d
:10336c007b617b6993f90030022b05d17b695a682c
:10337c007b699b689a4202d34ff0ff3324e0786953
:10338c0000f09cfdf860fb68002b1bdb7b69196966
:10339c00fa6813465b001344db000b443b61fb886b
:1033ac00dab23b691a737b695b685a1c7b695a6099
:1033bc00fb88dbb2fa68d2b21146184601f070fef7
:1033cc00034601e04ff0ff3318461837bd4680bd69
:0433dc0014060020b3
:020000040000fa
:1033e00080b582b000af78607b68002b3fd07b68ef
:1033f00001221a707b68012283f848207b6807222b
:1034000083f849207b68072283f838207b680722ed
:1034100083f839207b68db685b687a6892f8402023
:1034200090b27a6802f138010222984700bf01f099
:1034300031fa0346002bfad17b68092283f8382041
:103440007b68ff2283f839207b68db685b687a68d9
:1034500092f8402090b27a6802f13801022298472f
:1034600000bf01f017fa0346002bfad100e000bfbd
:063470000837bd4680bdd7
:020000040000fa
:0234760070479d
:020000040000fa
:103478000a0d4d6561737572696e672068656172c2
:1034880074206265617420726174652e2e2e20533b
:10349800616d706c65206e722e202564000000bf7f
:1034a8000a0d4d6561737572696e67206865617292
:1034b80074206265617420726174652e2e2e00007e
:1034c8000a0d486561727420526174653a252e3080
:1034d800662062706d0a0000566572696679696ec9
:1034e80067206465766963652049442e2e2e0d0099
:1034f8004465766963652049443a2025640d0d0ac0
:043508000a0000bff6
:020000040000fa
:10350c0090b587b002af78600023fb737b68002b0b
:10351c0037d07b6800225a617b6801221a707b6865
:10352c00022283f848207b68ff2283f838207b68ce
:10353c00db681c687b6893f8403098b27b6803f1b9
:10354c0038017b6803f11802012300931346012212
:10355c00a04700bf01f098f90346002bfad17b6815
:10356c001b7efb737b681b7edab27b6883f84b2077
:10357c00064801f059fdfb7b1946054801f0a2fdf8
:10358c0000e000bf1437bd4690bd00bfe034000022
:04359c00f8340000ff
:020000040000fa
:1035a00090b587b002af78600023fb737b68002b77
:1035b0003ad07b68062283f838207b68db681c6879
:1035c0007b6893f8403098b27b6803f138017b68e0
:1035d00003f118020123009313460122a04700bf04
:1035e00001f058f90346002bfad1fb7b43f07f032f
:1035f000fb737b68062283f838207b68fa7b83f8ac
:1036000038207b68db685b687a6892f8402090b26b
:103610007a6802f138010222984700bf01f03af9b6
:103620000346002bfad100e000bf1437bd4690bd21
:020000040000fa
:10363000b0b582b000af0346fb801f4b5b681e4aeb
:103640001360fb88184601f055fd17a3d3e900234a
:10365000fff7eef803460c4625461c46164b1b6842
:10366000184601f0edfa12a3d3e90023fff7e0f8c2
:1036700002460b4620462946fef76ef803460c46e6
:103680001846214600f080ff02460b4b5a600a4b59
:1036900093ed007a084bd3ed017a77ee277ab0eefe
:1036a000670a0837bd46b0bd48457c5eef63cf3f33
:0c36b0005cddc150084ee03f9807002090
:020000040000fa
:1036bc002de9ff41836946690093f61acde9016152
:1036cc0004461746039216444ff002086d464246d4
:1036dc002946206801f073fbb04209d1d4e90232cb
:1036ec00c4e905331a44a262384604b0bde8f0813f
:1036fc0000280dda6268002342f01002b8f1020fc4
:10370c00a362c4e90533626015d06b68ff1aebe75e
:10371c006b68984288bf0835a6eb000688bfc01ab4
:10372c002b6803442b606b68a3eb000088bf08f187
:0a373c00ff386860cbe71f46d6e7b0
:020000040000fa
:023746007047ca
:020000040000fa
:1037480053ec102b70b4c3f30a54a4f2fe300028d3
:1037580026dd342822dc19461a4bc0f120024ff02e
:10376800ff3603fa02f2c640a4f21e4423fa04f418
:103778001643264323fa00f010ee105a730843ea62
:10378800c07325ea0305751921ea500140eb0101d0
:1037980025ea060221ea000343ec102b70bc7047af
:1037a8004ff0000403f0004503d045ec104b70bc0b
:1037b800704745f07f53224643f4401343ec102be7
:0837c80070bc7047ffff1f00f9
:020000040000fa
:1037d00080b485b000af78607b681b0afb607b68b3
:1037e000dbb2bb60fb68002b2ad1194afb6854216d
:1037f00001fb03f3134408331b68ba689a421fd2d3
:10380000134afb68542101fb03f313441033196876
:10381000ba6813465b001344db000b441b78002b93
:103820000ed00b4afb68542101fb03f31344103301
:103830001968ba6813465b001344db000b4400e0d0
:10384000002318461437bd465df8047b704700bf5f
:04385000140600203a
:020000040000fa
:1038540080b487b000af786039600023fb757b6863
:10386400fb607b68bb6000233b617b68002b25d039
:103874001ee000bf154b1b7edbb203f00103002bdf
:10388400f8d0124b5b6803f00703012b06d0fa68eb
:103894003b6913441a780d4b9a6206e03b695b005e
:1038a400ba6813441a88094b9a623b6901333b6135
:1038b4003a693b689a42dcd30123fb75fb7d1846c9
:1038c4001c37bd465df8047b704700bf00200141f2
:020000040000fa
:1038d4002de9ff471d460c9b13f0010906468a4655
:1038e400144601d195420bd822465146304601f088
:1038f400a9f8a54204d82546284604b0bde8f087b7
:103904002f1b102f3a464ff0200128bf1022684683
:10391400b84601f029fdb8f10f0f11d83b096ff03b
:103924000f0202fb03726946304601f08bf8b9f1cd
:10393400000fe1d122465146304601f083f8dbe71f
:1039440010226946304601f07df8a8f11008e2e73c
:020000040000fa
:1039540080b500af01f020fd01f06efc01f023fd05
:1039640001f0a6fa00f042fa00f00cff01f08afa26
:10397400134b4122c3f8dc2000bf114bd3f8dc30d9
:1039840003f04003402bf8d10d4b4122c3f814211e
:1039940000bf0b4bd3f8143103f04003402bf8d194
:1039a400084b6ff07f421a61064b40f2ff725a6176
:1039b400044b054a9a61034b08221a6200bf80bd7a
:0c39c400001c004000080040568201007a
:020000040000fa
:1039d000842910b523d00cdc812903d0822913d08f
:1039e00080290bd119680c1d1c600b6803601a60dc
:1039f00013e0902921d003dc882917d0002010bdc6
:103a0000a029efd0c029ece719680c1d1c600b68d9
:103a10000360d1171046c3e900010120efe71968e0
:103a20000c1d1c600b6803601a80f6e719680c1dfa
:103a30001c600b6803601a70efe719680c1d1c60ae
:0c3a400009680160d317c1e90023e6e724
:020000040000fa
:103a4c0080b400af194b01221a6000bf174bdb6921
:103a5c00002bfbd1154b4ff480725a6000bf134bf7
:103a6c00db69002bfbd1114bff22da600f4b104aa4
:103a7c001a6000bf0d4bdb69002bfbd10b4b1022e6
:103a8c005a8300bf094bdb69002bfbd1094b002289
:103a9c0083f82120074b002283f82020034b83223c
:103aac009a7500bfbd465df8047b7047000c00435f
:083abc0016001000380700207d
:020000040000fa
:103ac4002de9f84f04460c9f6668d4f80cb02469bd
:103ad40010463a68013c002502f0020a0b9a0bf8e2
:103ae4000450002e1946b8bf0126012390464fea20
:103af400e279002c03dcd3b12046bde8f88f50ea0c
:103b0400010209d1721b002a06dc0a9a521b002a00
:103b1400f1ddbaf1000feed042464b4601f06cf9ec
:103b2400013c134630320bf804200135e1e73b68d1
:083b340023f010033b60dfe702
:020000040000fa
:103b3c00f8b5846a05460f46164654b1ab6a6a69f5
:103b4c009b1ab3420bd2324639462846fff7b0fdda
:103b5c00f8bd01f091fb0028f0d02046f8e7002ecc
:103b6c00f1d095f93430002b1bdbdbb23446621eee
:103b7c00b95c994212d1224639462846fff798fd86
:103b8c00a042e5d32744341b22463946686901f02c
:103b9c00b5fb6b691c446c613046d9e71446002aae
:063bac00e5d13446f0e70c
:020000040000fa
:103bb40080b500af002000f07bfdbff35f8f62b6dd
:103bc40007214a2000f04cfb4a2000f0e1fe0721c7
:103bd4004b2000f045fb4b2000f0dafe07214c207f
:103be40000f03efb4c2000f0d3fe07214d2000f0f6
:103bf40037fb4d2000f0ccfe094b5b6a084a43f4c6
:103c040080235362064b5b69054a43f010035361fa
:103c1400034b5b6a024a43f40033536200bf80bd26
:043c240000ed00e0cf
:020000040000fa
:103c2800b0b584b000af87ed010a194b9b68fb6003
:103c3800786801f001f804460d46154b9b68184654
:103c480000f0faff10a3d3e90023fef7edfd0246ca
:103c58000b4620462946fdf77bfd03460c461846d1
:103c6800214600f08dfc0246094b9a60084b93ed03
:103c7800027ad7ed037a77ee677ab0ee670a1037e3
:103c8800bd46b0bdaff30080cdccccccccccec3fa6
:043c98009807002069
:020000040000fa
:103c9c00f0b50c4649682368a768e56887b0002929
:103cac000593a4bf23f00203059305ab02930823ed
:103cbc00cde900730646d2e900232046fff7fcfe4f
:103ccc00059bd90642bf00f1ff3030232b54059bd6
:103cdc001a0742bf00f1ff3020232b542269059ba9
:103cec000093013a3b46121a29183046fff7ecfdb7
:103cfc007368db0503d563689842b8bf184607b0f4
:023d0c00f0bd08
:020000040000fa
:103d100080b584b000afb9607a603b600346fb8138
:103d2000164b93f820305bb2002b01d0002320e02b
:103d3000124afb899380114a3b68d3600f4abb69e2
:103d400053610e4abb6893600c4a7b6813610b4a4f
:103d50003b7f9370094a97f820301370074b00227d
:103d600083f821203a7ffb891146184600f0a4fa17
:103d7000012318461037bd4680bd00bf380700201c
:020000040000fa
:103d800080b582b000af78607b68012283f849205b
:103d90007b6800225a617b6801221a707b680122cd
:103da00083f848207b68db685b697a6844320021cd
:103db000104698477b68062283f838207b684022ab
:103dc00083f839207b68db685b687a6892f840206a
:103dd00090b27a6802f138010222984700bf00f0e1
:103de00059fd0346002bfad100bf0837bd4680bd00
:020000040000fa
:103df00080b400af174b4222c3f8842000bf154b9c
:103e0000d3f8843003f04003402bf8d1124b00224a
:103e10009a63114b77225a6300bf0f4bdb6b03f0a1
:103e20000403042bf9d00c4b022283f8302000bf8e
:103e3000094bdb6b03f00203022bf9d000bf064bea
:103e40001b6c03f00303032bf9d100bfbd465df8e3
:0c3e5000047b7047001c00400010004084
:020000040000fa
:103e5c0090b585b002af78600b46fb701346bb7013
:103e6c007b68002b26d07b6800225a617b6802227b
:103e7c0083f848207b6801221a707b68fa7883f8f3
:103e8c0038207b68db681c687b6893f8403098b2fc
:103e9c007b6803f138017b6803f11802bb7800934f
:103eac0013460122a04700bf00f0eefc0346002b96
:0c3ebc00fad100e000bf0c37bd4690bdfd
:020000040000fa
:103ec80080b485b000af78600023fb601ce07b689d
:103ed8001969fa6813465b001344db000b441b782e
:103ee80083f00103dbb2002b0bd07b681969fa68f9
:103ef80013465b001344db000b4401221a70fb6875
:103f080009e0fb680133fb607b689a68fb689a42aa
:103f1800ddd84ff0ff3318461437bd465df8047bf3
:023f28007047e0
:020000040000fa
:103f2c0070b5144b144a0021934206d3134a002552
:103f3c00d2e9003123b919b970bd03f8011bf3e7bd
:103f4c00946858180c3294b11446834208d111f07d
:103f5c00030318bf012303eb910102eb8102e7e796
:103f6c0014f8016b03f8016befe703f8015b834274
:103f7c00fbd1dde70000002000000020100c000049
:020000040000fa
:103f8c007fb5c36800911546002b18bf013a01920a
:103f9c0082680446cde902230e4602226946006877
:103fac0000f0ddfe002808dc00f0180383f00802a6
:103fbc0063681343636005460fe0019a8242fad2ac
:103fcc00a368e363801ae268184420642ab15a1c7f
:103fdc00e2632e441b7806f8013c284604b070bd01
:020000040000fa
:103fec0080b483b000af03460a46fb8013467b7156
:103ffc007b79002b04d00f4b032283f8202003e0a5
:10400c000c4b042283f82020fb885b007a79002a71
:10401c0001d0012200e00022074913434b6200bf8c
:10402c00054bdb69002bfbd100bf0c37bd465df89f
:0c403c00047b704738070020000c004394
:020000040000fa
:104048000e4a38b5002313600d4a0e4c13600e4a11
:104058000e4d13600e4a13600e4a13600e4a5362e7
:1040680013610123936001f075f9fef704fdac427a
:1040780000d338bd54f8043b9847f8e7f007002010
:10408800c406002070020000c00600207402000070
:0c409800b8060020bc060020c80600206e
:020000040000fa
:1040a40020212223242425252626272728282828ba
:1040b400292929292a2a2a2a2b2b2b2b2c2c2c2c54
:1040c4002c2c2c2c2d2d2d2d2d2d2d2d2e2e2e2e1c
:1040d4002e2e2e2e2f2f2f2f2f2f2f2f0001170292
:1040e4001d1813031e1b190b1408040d1f161c1294
:0c40f4001a0a070c1511090610050f0e22
:020000040000fa
:1041000038b50d46044608b9002038bd43689b0603
:1041100007d5d0e905239a4216d80023c4e9053310
:10412000a362d4e90f13994204d20122c91a20686c
:1041300001f086f90023c4e90f33002de4d0206894
:10414000bde8384001f079b90022c36a11469847aa
:0c4150006369002be1d14ff0ff30d6e78f
:020000040000fa
:10415c0070b5d0e90245a54217d10122a1f1200387
:10416c00c1f1200622fa06f602fa03f333438a4021
:10417c00db43d6431ab10b490a6832400a605a1c19
:10418c001fbf084a51680b4053604368ac6043f052
:10419c00010223f00103e5604260c25842f00102c3
:0841ac00c25070bd08040020a0
:020000040000fa
:1041b4002de9ff41134dd1f80080af88adf80c70a4
:1041c40006462868029002aca8798df80e00002af1
:1041d40018bf1446d1e901571a461bb9204601f00d
:1041e400b3f80246002d02dbaa4228bf2a46cdf8c6
:1041f40000803b4621463046fff76afb04b0bde829
:08420400f08100bf0854000026
:020000040000fa
:10420c00f0b50c4649682368a668e76887b00029b2
:10421c000593a4bf23f00203059305ab02930a2375
:10422c00cde900630546d2e900232046fff744fca4
:10423c002269059b0093013a3346121a3918284615
:10424c00fff742fb6b68db0503d563689842b8bf88
:06425c00184607b0f0bd9a
:020000040000fa
:1042640080b483b000af03463960fb80b7f90630f1
:10427400002b0adb3b68dab20c49b7f9063052016d
:10428400d2b20b4483f800230ae03b68dab208494f
:10429400fb8803f00f03043b5201d2b20b441a769d
:1042a40000bf0c37bd465df8047b704700e100e0b9
:0442b40000ed00e039
:020000040000fa
:1042b80080b582b000af03460a46fb8013467b7187
:1042c8000e4b00229a610d4b0022da610c4b8322bf
:1042d8001a760b4b5b680a4a23f48023536000bfad
:1042e800074bdb69002bfbd17a79fb88114618460e
:1042f800fff778fe00bf0837bd4680bd38070020ad
:04430800000c004362
:020000040000fa
:10430c0080b400af0f4bd3ed007af5ee407af1eeae
:10431c0010fa0fd00b4b93ed007af7ee006ac6ee55
:10432c00877a9fed097a67ee877a9fed087a67eeb8
:10433c00877a01e0dfed067ab0ee670abd465df8dc
:10434c00047b7047d807002000007a4400007042bc
:04435c00000000005d
:020000040000fa
:1043600080b483b000af0023fb71104b5b8b9bb21a
:1043700003f00703bb80bb88002b10d00b4b8022bf
:104380001a760a4b07225a8302e0084b9b6afb719c
:10439000064b1b7edbb203f00403042bf5d000bff9
:1043a0000c37bd465df8047b704700bf002001411b
:020000040000fa
:1043b00008b50c4b98470c4b984700f029fa00f0d1
:1043c0007dfbfbf763ff094b23f07f03084a9360f3
:1043d000084b9847084b9847084b984700f0a6ffb2
:1043e000fee700bf971900009719000000000000c9
:1043f00000ed00e049400000971900009719000007
:020000040000fa
:1044000080b483b000af104b4ff000021a6000235d
:104410007b6010e00d4a7b689b00134493ed007aab
:10442000094bd3ed007a77ee277a074bc3ed007a7c
:104430007b6801337b607b68132bebdd00bf0c379f
:10444000bd465df8047b7047e40700206806002045
:020000040000fa
:1044500080b485b000af0346fb800023fb60fb887f
:10446000002b02d04ff0ff3311e0fb88542202fbf7
:1044700003f30a4a1344fb60fb6893f84930dbb24c
:10448000072b01d0012302e0fb6893f900301846a6
:104490001437bd465df8047b704700bf140600204a
:020000040000fa
:1044a00013b5836a8df80710044673b16369a26a75
:1044b000934212d3e36a01220df107012046984787
:1044c000012806d19df8070005e000f0dbfe00287a
:1044d000ecd04ff0ff3002b010bd9df8070094f90a
:0e44e00034209042e6d05a1c62611870f3e757
:020000040000fa
:1044f00080b400af0f4b104a1a600e4b4ff62202e9
:104500009a810c4b4ff440325a6000bf094bdb6973
:10451000002bfbd1074b1b68064a43f002031360d4
:1045200000bf044bdb69002bfbd100bfbd465df82b
:0c453000047b7047002001410401104092
:020000040000fa
:10453c0080b582b000af786000f018fe00f0cafcc5
:10454c0000f03ef9fff700fafff7ccff00f02eff6a
:10455c00fff776fa07490020fef73efd0246064bb0
:10456c005a6000f07dfefff71ffb00bf0837bd4609
:0c457c0080bd00bfcc520000a40700204e
:020000040000fa
:1045880001f000428b1aa3f16051b1f5801f0adbdc
:10459800b1f17f6f09d242eac102c10071f1004155
:1045a80042eb507070471046704701285b4113f585
:1045b800001f02d842f0ff407047c90041ea50701e
:0c45c800104340f4800040f08040704739
:020000040000fa
:1045d400022a70b5044616461d461ad043689b0647
:1045e40017d441b9002d08bf4ff4806505f10800c8
:1045f400fdf7e2fe01466368012e43f02003636089
:10460400c4e9021514bfff230a2384f83430024b93
:0c461400e362002070bd00bf3d3b0000d1
:020000040000fa
:1046200010b590f948305a1e134380f84830d0e94d
:1046300005239a42044603d90022c36a11469847cb
:1046400060680023a362c4e90533830755bfd4e93a
:10465000023240f010009b18606056bfc4e90f336f
:0a4660004ff0ff3040f3c00010bd22
:020000040000fa
:10466a00c1f30a5340f21e42d21a0edd202a0ad89a
:10467a00cb0243ea505040f00040d04090eae1704b
:10468a00b0ebe1707047002070474b00004218bf42
:10469a0043f0010313f5001f88bf21f0004111f018
:0a46aa00004058bf6ff00040704759
:020000040000fa
:1046b40080b485b000af78607b6803f00703fb60cb
:1046c4000c4bdb68bb60ba684ff6ff031340bb605a
:1046d400fb681a02bb68134343f0bf6343f400331f
:1046e400bb60044abb68d36000bf1437bd465df8a5
:0846f400047b704700ed00e0bb
:020000040000fa
:1046fc0080b586b000aff860b9607a6000237b614a
:10470c000023fb74fb68002b10d17b68002b0dd0b1
:10471c000121b868fef7bafd0346fb74fb7c83f0fd
:10472c000103dbb2002bf3d101237b617b691846bb
:06473c001837bd4680bde8
:020000040000fa
:1047420010b50278202a034600f10100f9d0a2f147
:1047520009010429f5d92b2a07d02d2a11d10121cb
:104762000133013b00200a2403e00021f8e7604303
:10477200801a13f8012f303a092af8d901b94042b8
:0647820010bd0021ede76f
:020000040000fa
:1047880080b400af0c4b01225a7100bf0a4bdb7892
:10479800dbb203f00103012bf8d1084b084a1a6277
:1047a80000bf064b5b6803f00403042bf9d000bf7d
:1047b800bd465df8047b704700080040001c0040bf
:0447c80007010100e4
:020000040000fa
:1047cc0080b400af0e4b012283f8d8200c4b012291
:1047dc0083f8d9200a4b332283f8bc20084b0122e2
:1047ec0083f8c821064b012283f8c921044b2222ed
:1047fc0083f8b42100bfbd465df8047b704700bf51
:04480c0000800041e7
:020000040000fa
:1048100080b483b000afeff310833b603b687b60f4
:1048200072b60b4bd3f88830094a43f47003c2f8d0
:104830008830bff34f8fbff36f8f7b68002b00d1a1
:1048400062b600bf0c37bd465df8047b704700bf01
:0448500000ed00e097
:020000040000fa
:1048540010b5054c227832b9044b13b10448aff3b8
:1048640000800123237010bd6407002000000000b5
:104874000000000008b5034b1bb103490348aff324
:10488400008008bd00000000680700200000000050
:020000040000fa
:1048940080b483b000af0123fb710b4b93f820303d
:1048a4005bb2002b08d1094b5b8b9bb203f0300346
:1048b400102b01d10023fb71fb7918460c37bd4640
:1048c4005df8047b704700bf38070020000c0043ec
:020000040000fa
:1048d40080b483b000af01237b600de07b68013bb3
:1048e4000a497a6892000a44126808499b000b44fa
:1048f4001a607b6801337b607b68132beedd00bf9d
:104904000c37bd465df8047b704700bf6806002085
:020000040000fa
:104914000c4a036810b5546a0b4a591e121b8a428a
:104924000ad22bb1094b0c221a604ff0ff3010bd94
:10493400102202600020fae7173323f00f0303600c
:10494400f8e700bfc8060020efffff7ff407002050
:020000040000fa
:1049540010b44c68a40602460b4603d45df8044b1d
:1049640000f0e2b891f93410c0b2814203d0596921
:104974009c6aa14205d3114618465df8044bfff723
:0e4984008dbd4c1c5c610a705df8044b7047e1
:020000040000fa
:1049940080b483b000af0346fb80b7f90630002b28
:1049a4000bdbfb8803f01f020749b7f906305b09ec
:1049b400012000fa02f241f8232000bf0c37bd4663
:0c49c4005df8047b704700bf00e100e0dc
:020000040000fa
:1049d00080b483b000af78600b4b1b687a689a4252
:1049e00004d2094b1a687b68d31a06e0064b1a6892
:1049f0007b68d31a03f10043013b18460c37bd46d0
:0c4a00005df8047b704700bfc407002075
:020000040000fa
:104a0c004ff4001c1ceb410f98bf1ceb430f11d84b
:104a1c0051ea030c50ea4c0c5cea020c0cd004d2a8
:104a2c0082428b41804101307047904299418041d4
:0c4a3c00013070470020704701207047d7
:020000040000fa
:104a480038b5436813f4807f0446154610d00369cf
:104a580040699a4228bf1d462a4600f051fc626907
:104a68005319636123695b1b23610023535538bdc8
:0a4a7800db06fcd400f00efcf9e7a9
:020000040000fa
:104a820080b586b000aff860b9607a600023fb752c
:104a9200fb68012b0bd17968b868fef7dafe034692
:104aa200fb75fb7d83f00103dbb2002bf3d17b6846
:084ab20018461837bd4680bd0f
:020000040000fa
:104abc0080b400af0b4b9b680a4a23f00103936050
:104acc0000bf084bdb6803f00103012bf9d0054b49
:104adc0024225a60034b01229a6000bfbd465df848
:084aec00047b704700600041eb
:020000040000fa
:104af4004ff4001c1ceb410f98bf1ceb430f11d863
:104b040051ea030c50ea4c0c5cea020c0ad004d2c1
:104b140082428b418041404270479042994180419a
:084b2400404270470020704779
:020000040000fa
:104b2c0007b54a68c0b2d2050b468df8070006d50a
:104b3c004a69511c5961107003b05df804fb0122e5
:104b4c000df10701184600f0a3fb10b19df807000a
:084b5c00f2e74ff0ff30efe734
:020000040000fa
:104b640000090138202813d9b0f5007f05d2094b7c
:104b740003ebd00010f8040c7047b0f5e05f06d8e2
:104b8400044b03ebd01010f8040c103070473f2096
:084b9400704700bfa4400000bf
:020000040000fa
:104b9c0030b50c4a002312f8134024b902eb43033e
:104bac005b78184630bd01680d78a54209bf02eb51
:104bbc00430301335b78013114bfdbb201600a2b74
:084bcc00e9d9eee720520000d8
:020000040000fa
:104bd4004ff4001c1ceb410f98bf1ceb430f11d882
:104be40051ea030c50ea4c0c5cea020c0ad004d2e1
:104bf4009042994180414042704782428b418041ba
:084c0400404270470020704798
:020000040000fa
:104c0c0080b400af094b1b68094a934205d8074b87
:104c1c001b680133054a136002e0044b00221a6042
:104c2c0000bfbd465df8047b704700bfc407002081
:044c3c00feffff7ff9
:020000040000fa
:104c4000c0f3c75191b142004fea40704fead20120
:104c50004fea310101f16051b2f17f4f38bf704727
:104c600001f1605118bf41f40021704710f000417c
:044c70000020704769
:020000040000fa
:104c740080b588b004afb9607a603b600346fb81bd
:104c8400f8890023029300230193bb6900933b68d6
:104c94007a68b968fff73af8034618461037bd46f4
:024ca40080bdd1
:020000040000fa
:104ca60080b485b000af03463960fb710023fb601a
:104cb600fb79012b07d13b68fb60fb68002b02d018
:104cc600fb6806221a7000bf1437bd465df8047be8
:024cd600704725
:020000040000fa
:104cd8004ff4001c1ceb410f98bf1ceb430f0cd882
:104ce80050ea410c08bf52ea430c08d0904208bf72
:104cf80099420cbf01200020704700207047012016
:024d08007047f2
:020000040000fa
:104d0a0080b588b004af0346b9607a60fb81f88940
:104d1a0000230293012301937b680093bb6800225e
:104d2a000021fef7f0ff034618461037bd4680bd46
:020000040000fa
:104d3a0080b588b004af0346b9607a60fb81f88910
:104d4a0000230293002301930023009300237a682f
:104d5a00b968fef7d8ff034618461037bd4680bd2e
:020000040000fa
:104d6a002de9f843002580460e4617462c4601f1e8
:104d7a000409bc4202db2846bde8f88359f834200e
:104d8a0056f834104046fff7b4fc01340544f0e706
:020000040000fa
:104d9a0070b505462c68e30701d500200fe02046d0
:104daa00fff7dbfe064600f0d2f92868a042f1d1ef
:104dba0020f00100281a3146fff7cbf9012070bd17
:020000040000fa
:104dca002de9f843002580460e4617462c4601f188
:104dda000409bc4202db2846bde8f88359f83420ae
:104dea0056f834104046fff747fe01340544f0e711
:020000040000fa
:104dfc0053b94ab9002908bf00281cbf4ff0ff3136
:104e0c004ff0ff30fdf7bcbeadf1080c6de904cee0
:104e1c00fcf702faddf804e0dde9022304b0704788
:020000040000fa
:104e2c0080b586b000aff860b9607a60f868fef7bc
:104e3c00c9fc78617b69002b05d07b69ba685a6024
:0e4e4c007b697a689a6000bf1837bd4680bd4a
:020000040000fa
:104e5a00426822f00102531a102b30b40dd94418bb
:104e6a0041f0010543f001034550636083504560fa
:0e4e7a0004f1080030bcfdf706bf30bc7047e5
:020000040000fa
:104e880080b400af074b084a5a6200bf054b5b6805
:104e980003f00803082bf9d000bfbd465df8047b7a
:0c4ea800704700bf001c00400701020022
:020000040000fa
:104eb40080b400af074b084a9a6200bf054b5b6899
:104ec40003f01003102bf9d000bfbd465df8047b3e
:0c4ed400704700bf001c004006013000c9
:020000040000fa
:104ee00080b500af074b1b681b680021184600f017
:104ef00025fa054b1b681b680021184600f01efab6
:0c4f000000bf80bd0c080020f00800205d
:020000040000fa
:104f0c0070b505466c68e30701d500200de020461e
:104f1c00fff722fe064600f019f96b68a342f1d1a7
:0c4f2c0028463146fff714f9012070bd43
:020000040000fa
:104f380000b553ec112b83b051ec100b8ded002b09
:104f4800fdf772fc9ded002b53ec122bfcf700fcd7
:0c4f580041ec100b03b05df804fb00bf3f
:020000040000fa
:104f6400074b1968024609b90649196018680649c9
:104f740002448a4294bf1a604ff0ff30704700bf6a
:0c4f8400f807002000090020000b0020ae
:020000040000fa
:104f900070b5002902fb01f614460d4618bf1446f1
:104fa00001463246184608bf002400f077f98642d1
:0a4fb00018bfb0fbf5f4204670bdf9
:020000040000fa
:104fba00802910db812901dd83290cd1136807338d
:104fca0023f0070303f108011160d3e90023c0e9c4
:0a4fda0000230120704700207047fb
:020000040000fa
:104fe40080b483b000af78603960064a7b6853624e
:104ff400044a3b68936200bf0c37bd465df8047bee
:08500400704700bf38070020cf
:020000040000fa
:10500c0080b483b000af074b93f85230fb71054b63
:10501c00002283f85220fb7918460c37bd465df808
:08502c00047b7047140600200c
:020000040000fa
:1050340010b5084c2368196800f06bf8002807dbea
:1050440023680a20196800f0d4f9c00f404210bd4b
:085054000120fbe7f008002039
:020000040000fa
:10505c0013b50446fff7defa18b14ff0ff3002b07b
:10506c0010bd636c01220df1070120469847012801
:08507c00f3d19df80700f2e7f3
:020000040000fa
:1050840090f948305a1e1343426880f8483012f0b1
:1050940004031bbf42f010024260c0e90f334ff01b
:0850a400ff3008bf18467047f9
:020000040000fa
:1050ac0080b483b000af03460a46fb711346bb7154
:1050bc00fb791a02bb79134318460c37bd465df8d1
:0450cc00047b7047aa
:020000040000fa
:1050d0000fb407b5064b04aa1b6852f8041b1868e6
:1050e000019200f08ff803b05df804eb04b0704754
:0450f000f0080020a4
:020000040000fa
:1050f40010f0004160b148bf40420a0d02f21d4267
:10510400b0fa80f3d21a9840c30a400503eb025167
:025114007047e2
:020000040000fa
:1051160070b50e46054600f016f9334604460246bb
:1051260001212846fff731ff001b18bf4ff0ff3063
:0251360070bd4a
:020000040000fa
:1051380080b483b000af87ed010a044a7b68d3646a
:1051480000bf0c37bd465df8047b70476806002039
:020000040000fa
:10515800064b013053f830203ab9c100a1f10802da
:105168001a44194443f830204a6070470804002064
:020000040000fa
:1051780080b400af044b40f204521a8000bfbd4611
:0c5188005df8047b704700bf0040004150
:020000040000fa
:1051940080b400af044b93f82130dbb21846bd460f
:0c51a4005df8047b704700bf3807002056
:020000040000fa
:1051b00080b400af044b93f82c30dbb21846bd46e8
:0c51c0005df8047b704700bf080700206a
:020000040000fa
:1051cc0080b500affdf78efa034b5b681846fcf711
:0c51dc0081f900bf80bd00bfa4070020c7
:020000040000fa
:1051e80050b140f21d42b0fa80f1521a8840c30a09
:0c51f800400503eb0251704701007047b6
:020000040000fa
:1052040013b50446019201aafbf790fe636813f0fc
:0c521400100f18bf4ff0ff3002b010bdab
:020000040000fa
:1052200068076c094c836a9074a07ac00080688813
:0c52300000846c820081286e696c2900eb
:020000040000fa
:10523c0080b400af034b00221a7400bfbd465df86a
:08524c00047b704700140040d0
:020000040000fa
:10525400754c00003b4d00000b4d000095510000c3
:08526400e54f0000252f0000ba
:020000040000fa
:10526c0080b400af034b00221a7000bfbd465df83e
:08527c00047b7047ac07002021
:020000040000fa
:1052840010b50446fff7fcfe28b9a368e268c4e938
:0852940005331344a36210bdb1
:020000040000fa
:10529c0010b4c46a1cb123465df8044b184700686f
:0852ac005df8044bfff7e7bbbe
:020000040000fa
:1052b4000068002808b501da002008bdfff750fe99
:0652c400431cfad1f8e7db
:020000040000fa
:1052cc005452000057000000a08601008007002007
:0452dc0001000000cd
:020000040000fa
:1052e000d0e90f318b4201d3fff7b8be591cc1631f
:0452f0001878704773
:020000040000fa
:1052f40008b500f083f8024b1860586008bd00bf81
:04530400b4070020ca
:020000040000fa
:1053080010b500239a4200d110bdcc5cc4540133bf
:02531800f8e7b4
:020000040000fa
:10531a00034611f8012b184603f8012b002af8d18d
:02532a007047ca
:020000040000fa
:10532c0080b500af0020fff703f9fff749fffce75a
:020000040000fa
:10533c0000294ff480630cbf02220022fff744b90e
:020000040000fa
:10534c0003461a46013311780029fad1101a704716
:020000040000fa
:10535c0008b5fff7c9fffef788f8fef786f808bd19
:020000040000fa
:10536c0002440346934200d1704703f8011bf9e74e
:020000040000fa
:10537c00494e4600696e66004e414e006e616e00ed
:10538c00494e4600696e66004e414e006e616e00dd
:020000040000fa
:0e539c0080b400af00bfbd465df8047b7047d3
:020000040000fa
:0e53aa0080b400af00bfbd465df8047b7047c5
:020000040000fa
:0e53b80080b400af00bfbd465df8047b7047b7
:020000040000fa
:0e53c600a0f14103192b98bf40f02000704762
:020000040000fa
:0e53d400a0f16103192b98bf00f05f00704735
:020000040000fa
:0c53e20010b50446fff798ff204610bdf0
:020000040000fa
:0853ee0083f00043fcf7b1b9a4
:020000040000fa
:0853f60008b5fff7acfa08bd91
:020000040000fa
:08540000004870477408002009
:020000040000fa
:07540800286e756c6c290091
:020000040000fa
:0654100080b400affee7ce
:020000040000fa
:0654160080b400affee7c8
:020000040000fa
:06541c0080b400affee7c2
:020000040000fa
:0654220080b400affee7bc
:020000040000fa
:0654280080b400affee7b6
:020000040000fa
:06542e0080b400affee7b0
:020000040000fa
:065434000068fff724bb35
:020000040000fa
:06543a004ff0ff30704747
:020000040000fa
:045440000020704791
:020000040000fa
:0200000400807a
:044000003912003c35
:020000040000fa
:0200000400807a
:044004008000a82a66
:020000040000fa
:0200000400807a
:04400800ffffffffb8
:00000001FF
